:020000040800F2
:1000000000800020050300089903000899030008F8
:100010009903000899030008990300089903000850
:100020009903000899030008990300089903000840
:100030009903000899030008990300089903000830
:100040009903000899030008990300089903000820
:100050009903000899030008990300089903000810
:100060009903000899030008990300089903000800
:1000700099030008990300089903000899030008F0
:1000800099030008990300089903000899030008E0
:1000900099030008990300089903000899030008D0
:1000A00099030008990300089903000899030008C0
:1000B00099030008990300089903000899030008B0
:1000C00099030008990300089903000899030008A0
:1000D0009903000899030008950700089903000890
:1000E0009903000899030008990300089903000880
:1000F0009903000899030008990300089903000870
:10010000990300089903000899030008990300085F
:10011000990300089903000899030008990300084F
:10012000990300089903000899030008990300083F
:10013000990300089903000899030008990300082F
:10014000990300089903000899030008990300081F
:10015000990300089903000899030008990300080F
:1001600099030008990300089903000899030008FF
:1001700099030008990300089903000899030008EF
:1001800099030008990300089903000899030008DF
:1001900099030008990300089903000899030008CF
:1001A00099030008990300089903000899030008BF
:1001B00099030008990300089903000899030008AF
:1001C000990300089903000899030008990300089F
:1001D000990300089903000880B400AF2B4B1B68FB
:1001E0002A4A23F080731360284B1B6803F00073C6
:1001F000002B14BF01230023DBB2002B00D0F3E758
:10020000234B1B68224A23F00F031360204B1B680B
:100210001F4A43F0070313601D4B1B681C4A43F43D
:1002200080731360194BDB68184A43F00203D360F4
:10023000164BDB68154A23F4FE43D360134BDB688F
:10024000124A43F4AA43D360104BDB680F4A23F0F1
:10025000F003D3600D4BDB680C4A43F03003D360EE
:100260000A4BDB68094A43F08073D360074B1B6875
:10027000064A43F080731360044B9B68034A43F0C3
:100280000303936000BFBD4680BC7047001002406E
:100290000020024080B582B000AF164A164BD31A38
:1002A0009B103B6000237B607A683B689A4208D2CF
:1002B000114A7B6852F8233098477B6801337B6092
:1002C000F2E70E4A0E4BD31A9B103B6000237B6073
:1002D0007A683B689A4208D2094A7B6852F8233010
:1002E00098477B6801337B60F2E700BF0837BD4663
:1002F00080BD00BF38080008380800083C08000826
:100300003808000880B584B000AFFFF765FF1D4BCB
:10031000FB601D4BBB601D4A1B4BD31A7B607B6887
:100320005A1E7A60002B14BF01230023DBB2002B7E
:1003300009D0FB685A1CFA601978BB685A1CBA606D
:100340000A461A70EBE7124BBB60124A104BD31AE5
:100350007B607B685A1E7A60002B14BF0123002348
:10036000DBB2002B05D0BB685A1CBA6000221A70A1
:10037000EFE7FFF78FFF00F03DF800BF1037BD46F5
:1003800080BD00BF760900080000002000000020AA
:10039000000000201C01002080B400AFFEE700BF79
:1003A00080B483B000AF78607B685A1E7A60002BFF
:1003B00014BF01230023DBB2002B00D0F4E700BF01
:1003C0000C37BD4680BC704780B400AF4FF09043FF
:1003D0001B684FF0904223F0020313604FF09043EC
:1003E0001B684FF0904243F00103136000BFBD460D
:1003F00080BC704780B582B000AF1448FFF7D0FFD3
:10040000FFF7E2FF124800F049F862B611491048C0
:1004100000F055F90E4800F0EFF80346FB71FB7948
:10042000002B14BF01230023DBB2002BF2D00A49BA
:10043000074800F044F9FB791946054800F030F907
:100440000649034800F03BF9E4E700BF40420F00D3
:10045000000000203C080008500800085C08000864
:1004600080B582B000AF786039607B68012B07D11E
:100470003B684FF6FF72934202D1034800F071FAD5
:1004800000BF0837BD4680BD0000002080B500AF2A
:100490004FF6FF710120FFF7E3FF80BD80B485B008
:1004A00000AF78604FF41653FB603A4A7B681360E4
:1004B00072B67B680022C3F8942000237A68C2F8E1
:1004C00090307A68C2F88C307B6800229A600023F2
:1004D0007A6853607A6813602F4BDB6C2E4A43F0C6
:1004E0000103D3642C4B9B6D2B4A43F4003393657B
:1004F0004FF090431B684FF0904243F0A00313600D
:100500004FF090431B684FF0904223F0500313606C
:100510004FF090431B6A4FF0904223F47F431362E5
:100520004FF090431B6A4FF0904243F4EE43136246
:100530001A4BBB60BA68FB6892FBF3F3BB60164BC7
:100540009B6B154A23F400339363154B00221A600A
:10055000134B00225A60124B00229A60104ABB686B
:10056000D3600F4B4FF0FF321A620D4B6C221A60B2
:100570000B4B1B680A4A43F001031360094B5B688D
:10058000084A43F04003536062B600BF1437BD46CB
:1005900080BC7047180100200010024080FE210A34
:1005A0000044004000E100E080B582B000AF786018
:1005B0000B46FB700F4B1B6803F00803002B0CBFAE
:1005C00001230023DBB2002B09D00A4B1B68094A28
:1005D00043F008031360074AFB78936205E07B68E9
:1005E000FA781946786800F081F800BF0837BD46F0
:1005F00080BD00BF0044004080B582B000AF78608D
:100600007B688C331946786800F09AF803461846E0
:100610000837BD4680BD80B586B000AF78603960D0
:100620000A237B610023FB743B68002B05DA2D2332
:100630003B723B685B423B6001E02B233B727B6972
:10064000002B20DD3A68154B83FB02139910D3175A
:10065000C91A0B469B000B445B00D11ACBB2303356
:10066000D9B207F108027B6913440A461A703B6845
:100670000A4A82FB03129210DB17D31A3B607B6994
:10068000013B7B61DBE707F108031946786800F05E
:1006900016F800BF1837BD4680BD00BF67666666A6
:1006A00080B582B000AF78600B46FB70FB781946CE
:1006B0007868FFF779FF00BF0837BD4680BD80B579
:1006C00082B000AF786039603B681B78002B09D09E
:1006D0003B681B7819467868FFF766FF3B68013373
:1006E0003B60F1E700BF0837BD4680BD80B485B0F0
:1006F00000AFF860B9601346FB71BB689B687F2B45
:1007000094BF01230023DBB2002B14D072B6BB6868
:100710009B685A1CBB689A60F979BB681B68BA6809
:1007200013440A461A73BB681B68013303F07F0247
:10073000BB681A6062B600BF1437BD4680BC704704
:1007400080B485B000AF786039600023FB733B68EC
:100750009B68002B14BF01230023DBB2002B13D0B6
:1007600072B63B689B685A1E3B689A603B685B6840
:100770003A6813441B7BFB733B685B68013303F0EF
:100780007F023B685A6062B6FB7B18461437BD4651
:1007900080BC704780B500AF254BDB6903F0800358
:1007A000002B14BF01230023DBB2002B22D0204BEF
:1007B0001B6A1F4A43F0600313621E4B1B689B6851
:1007C000002B14BF01230023DBB2002B0CD0194BEC
:1007D0001B68184A126811461846FFF7B1FF034616
:1007E0001A46134B9A6205E0114B1B68104A23F01E
:1007F000080313600E4BDB6903F02003002B14BFCA
:1008000001230023DBB2002B10D00A4B1868094BE0
:100810001B688C33064A526AD2B21946FFF766FF4C
:10082000034B1B6A024A43F02003136200BF80BDE2
:1008300000440040180100208D04000854797065C0
:1008400020736F6D657468696E670D0A00000000A3
:10085000596F752074797065643A20000D0A00475D
:1008600043433A2028474E5520546F6F6C732066DF
:100870006F722041726D20456D626564646564200D
:1008800050726F636573736F727320392D3230311C
:10089000392D71342D6D616A6F722920392E322EF7
:1008A00031203230313931303235202872656C6573
:1008B00061736529205B41524D2F61726D2D392D79
:1008C0006272616E6368207265766973696F6E200B
:1008D0003237373539395D00412D000000616561DF
:1008E00062690001230000000537452D4D00060D0B
:1008F000074D09021204140115011703180119010B
:100900001A011E062201412D000000616561626925
:100910000001230000000537452D4D00060D074D51
:1009200009021204140115011703180119011A0113
:100930001E062201412D000000616561626900010F
:10094000230000000537452D4D00060D074D090217
:100950001204140115011703180119011A011E06CA
:02096000220172
:1009620080B483B000AF78607B6818460C37BD4610
:0409720080BC70478E
:0400000508000000EF
:00000001FF
