:020000040800F2
:1000000000800020050300089903000899030008F8
:100010009903000899030008990300089903000850
:100020009903000899030008990300089903000840
:100030009903000899030008990300089903000830
:100040009903000899030008990300089903000820
:100050009903000899030008990300089903000810
:100060009903000899030008990300089903000800
:1000700099030008990300089903000899030008F0
:100080009903000899030008D9060008990300089D
:1000900099030008990300089903000899030008D0
:1000A00099030008990300089903000899030008C0
:1000B00099030008990300089903000899030008B0
:1000C00099030008990300089903000899030008A0
:1000D0009903000899030008990300089903000890
:1000E0009903000899030008990300089903000880
:1000F0009903000899030008990300089903000870
:10010000990300089903000899030008990300085F
:10011000990300089903000899030008990300084F
:10012000990300089903000899030008990300083F
:10013000990300089903000899030008990300082F
:10014000990300089903000899030008990300081F
:10015000990300089903000899030008990300080F
:1001600099030008990300089903000899030008FF
:1001700099030008990300089903000899030008EF
:1001800099030008990300089903000899030008DF
:1001900099030008990300089903000899030008CF
:1001A00099030008990300089903000899030008BF
:1001B00099030008990300089903000899030008AF
:1001C000990300089903000899030008990300089F
:1001D000990300089903000880B400AF2B4B1B68FB
:1001E0002A4A23F080731360284B1B6803F00073C6
:1001F000002B14BF01230023DBB2002B00D0F3E758
:10020000234B1B68224A23F00F031360204B1B680B
:100210001F4A43F0070313601D4B1B681C4A43F43D
:1002200080731360194BDB68184A43F00203D360F4
:10023000164BDB68154A23F4FE43D360134BDB688F
:10024000124A43F4AA43D360104BDB680F4A23F0F1
:10025000F003D3600D4BDB680C4A43F03003D360EE
:100260000A4BDB68094A43F08073D360074B1B6875
:10027000064A43F080731360044B9B68034A43F0C3
:100280000303936000BFBD4680BC7047001002406E
:100290000020024080B582B000AF164A164BD31A38
:1002A0009B103B6000237B607A683B689A4208D2CF
:1002B000114A7B6852F8233098477B6801337B6092
:1002C000F2E70E4A0E4BD31A9B103B6000237B6073
:1002D0007A683B689A4208D2094A7B6852F8233010
:1002E00098477B6801337B60F2E700BF0837BD4663
:1002F00080BD00BFA4070008A4070008A4070008E9
:10030000A407000880B584B000AFFFF765FF1D4B60
:10031000FB601D4BBB601D4A1B4BD31A7B607B6887
:100320005A1E7A60002B14BF01230023DBB2002B7E
:1003300009D0FB685A1CFA601978BB685A1CBA606D
:100340000A461A70EBE7124BBB60124A104BD31AE5
:100350007B607B685A1E7A60002B14BF0123002348
:10036000DBB2002B05D0BB685A1CBA6000221A70A1
:10037000EFE7FFF78FFF00F001FA00BF1037BD462F
:1003800080BD00BFAB080008000000200000002076
:10039000000000200400002080B400AFFEE700BF92
:1003A00080B483B000AF78607B685A1E7A60002BFF
:1003B00014BF01230023DBB2002B00D0F4E700BF01
:1003C0000C37BD4680BC704780B48BB000AF3C4B4F
:1003D0009B6C3B4A43F0100393640823FB610023AA
:1003E000BB61FB6910337B6100233B61354B1B69AB
:1003F000344A43F400431361BB691A047B691B024E
:100400001A4430493B6913440B601023FB60FB69BD
:100410001033BB60FB681A022A49BB6813444B6067
:10042000FB6920337B6001233B603B681A0225494E
:100430007B6813448B60234B0022DA60214B224AF5
:10044000DA60204BDB681F4A43F00043D36000238F
:100450007B627B6A0F2B06DC1A4B00229A617B6A57
:1004600001337B62F5E7174B0022DA60154B174A20
:10047000DA60144BDB68134A43F00043D360002377
:100480003B623B6A0F2B09DC114A3B6A32F91320AD
:100490000C4B9A613B6A01333B62F2E7094B002245
:1004A000DA60084B0B4ADA60064BDB68054A43F01A
:1004B0000043D36000BF2C37BD4680BC704700BFEF
:1004C0000010024000140240100000011000000261
:1004D000A40700081000000880B400AF0D4BDB6CCF
:1004E0000C4A43F00403D3640B4B1B680A4A23F005
:1004F00080031360084B1B68074A43F040031360F6
:10050000054B9B68044A43F00303936000BFBD465C
:1005100080BC7047001002400008004880B400AF63
:10052000114BDB6C104A43F48033D3640E4BDB6C0D
:100530000D4A43F00103D3640C4B1B680B4A43F094
:1005400001131360094B00229A60084B00225A6184
:100550004FF090431B684FF0904243F47063136078
:1005600000BFBD4680BC704700100240000800502C
:1005700080B400AF544B9B6D534A43F00103936525
:10058000514B9B6B504A23F0010393634FF0804320
:1005900000221A604FF0804300221A614FF080431E
:1005A00000229A624FF0804340F6D552DA624FF053
:1005B000804320225A604FF080435B694FF08042B5
:1005C00043F0010353614FF080431B684FF08042BA
:1005D00043F0100313604FF080431B684FF08042DC
:1005E00043F001031360384BD3F88830364A43F0A8
:1005F0000053C2F88830344BDB6C334A43F00103BC
:10060000D3644FF090431B684FF0904243F00303D4
:1006100013602D4BDB6C2C4A43F40053D3642A4BFC
:10062000DB6A294A23F40053D3624FF0A04300222F
:100630009A60264B9B68254A43F40C1343F006034B
:1006400093604FF0A0434FF080529A604FF0A04368
:100650009B684FF0A04243F0004393604FF0A043EB
:100660009B68DB0FDBB2002B00D0F7E74FF0A04315
:10067000174ADA604FF0A04300221A634FF0A043FC
:100680001B6B4FF0A04243F0400313634FF0A043B5
:1006900008225A600F4B1B680E4A43F480231360F4
:1006A0004FF0A0439B684FF0A04243F001039360DA
:1006B0004FF0A0439B684FF0A04243F004039360C7
:1006C00000BFBD4680BC70470010024000030050D0
:1006D0006015008000E100E080B483B000AF224BE1
:1006E0005B69214A43F0080353614FF0A0431B6844
:1006F00003F00803002B14BF01230023DBB2002BFF
:1007000026D01A4BDB689BB2A3F500639BB21AB2EA
:10071000174B1A80164BB3F90020164B9A61154BF4
:100720005B6903F00103002B14BF01230023DBB23C
:10073000002B00D0F3E70F4BDB69FB80B7F90630E5
:1007400003F500620C4B9A604FF0A04308221A6038
:10075000054B5B69044A23F00803536100BF0C3763
:10076000BD4680BC704700BF000800480003005031
:1007700000000020001402400008005080B582B044
:1007800000AF0023FB80FFF7A7FEFFF71DFEFFF77A
:10079000C5FEFFF7EDFE62B64FF47A70FFF700FE7C
:1007A000FAE700BF0F01980118036A054008290BFA
:1007B000AF0D640FFF0F640FAF0D290B40086A05E2
:1007C000180398010F014743433A2028474E55200C
:1007D000546F6F6C7320666F722041726D20456D8F
:1007E0006265646465642050726F636573736F72D1
:1007F0007320372D323031382D71322D7570646190
:1008000074652920372E332E31203230313830367E
:100810003232202872656C6561736529205B415214
:100820004D2F656D6265646465642D372D6272615C
:100830006E6368207265766973696F6E2032363137
:100840003930375D00413200000061656162690046
:10085000012800000005436F727465782D4D340047
:10086000060D074D090212041401150117031801A2
:1008700019011A011E062201413200000061656162
:10088000626900012800000005436F727465782DCD
:100890004D3400060D074D0902120414011501170D
:0B08A00003180119011A011E062201B5
:0400000508000000EF
:00000001FF
