:020000040800F2
:1000000000800020050300089903000899030008F8
:100010009903000899030008990300089903000850
:100020009903000899030008990300089903000840
:100030009903000899030008990300089903000830
:100040009903000899030008990300089903000820
:100050009903000899030008990300089903000810
:100060009903000899030008990300089903000800
:1000700099030008990300089903000899030008F0
:1000800099030008990300089903000899030008E0
:1000900099030008990300089903000899030008D0
:1000A00099030008990300089903000899030008C0
:1000B00099030008990300089903000899030008B0
:1000C00099030008990300089903000899030008A0
:1000D0009903000899030008990300089903000890
:1000E0009903000899030008990300089903000880
:1000F0009903000899030008990300089903000870
:10010000990300089903000899030008990300085F
:10011000990300089903000899030008990300084F
:10012000990300089903000899030008990300083F
:10013000990300089903000899030008990300082F
:10014000990300089903000899030008990300081F
:10015000990300089903000899030008990300080F
:1001600099030008990300089903000899030008FF
:1001700099030008990300089903000899030008EF
:1001800099030008990300089903000899030008DF
:1001900099030008990300089903000899030008CF
:1001A00099030008990300089903000899030008BF
:1001B00099030008990300089903000899030008AF
:1001C000990300089903000899030008990300089F
:1001D000990300089903000880B400AF2B4B1B68FB
:1001E0002A4A23F080731360284B1B6803F00073C6
:1001F000002B14BF01230023DBB2002B00D0F3E758
:10020000234B1B68224A63F00F031360204B1B68CB
:100210001F4A43F0070313601D4B1B681C4A43F43D
:1002200080731360194BDB68184A43F00203D360F4
:10023000164BDB68154A23F4FE43D360134BDB688F
:10024000124A43F4AA43D360104BDB680F4A23F0F1
:10025000F003D3600D4BDB680C4A43F04003D360DE
:100260000A4BDB68094A43F08073D360074B1B6875
:10027000064A43F080731360044B9B68034A43F0C3
:100280000303936000BFBD4680BC7047001002406E
:100290000020024080B582B000AF164A164BD31A38
:1002A0009B103B6000237B607A683B689A4208D2CF
:1002B000114A7B6852F8233098477B6801337B6092
:1002C000F2E70E4A0E4BD31A9B103B6000237B6073
:1002D0007A683B689A4208D2094A7B6852F8233010
:1002E00098477B6801337B60F2E700BF0837BD4663
:1002F00080BD00BF3004000830040008300400084E
:100300003004000880B584B000AFFFF765FF1D4BD7
:10031000FB601D4BBB601D4A1B4BD31A7B607B6887
:100320005A1E7A60002B14BF01230023DBB2002B7E
:1003300009D0FB685A1CFA601978BB685A1CBA606D
:100340000A461A70EBE7124BBB60124A104BD31AE5
:100350007B607B685A1E7A60002B14BF0123002348
:10036000DBB2002B05D0BB685A1CBA6000221A70A1
:10037000EFE7FFF78FFF00F027F800BF1037BD460B
:1003800080BD00BF02050008000000200000002022
:10039000000000200000002080B400AFFEE700BF96
:1003A00080B483B000AF78607B685A1E7A60002BFF
:1003B00014BF01230023DBB2002B00D0F4E700BF01
:1003C0000C37BD4680BC704780B500AF164BDB6C68
:1003D000154A43F00103D3644FF090431B684FF07C
:1003E000904223F0020313604FF090431B684FF0DC
:1003F000904243F0010313604FF090435B694FF06C
:10040000904243F0010353610848FFF7C9FF4FF0E2
:1004100090435B694FF0904223F00103536103481E
:10042000FFF7BEFFE8E700BF0010024040420F00A8
:100430004743433A2028474E5520546F6F6C732032
:10044000666F722041726D20456D626564646564FB
:100450002050726F636573736F727320382D323062
:1004600031392D71332D7570646174652920382EF2
:10047000332E312032303139303730332028726515
:100480006C6561736529205B6763632D382D62722B
:10049000616E6368207265766973696F6E203237AA
:1004A000333032375D00412D0000006165616269C3
:1004B0000001230000000537452D4D00060D074DB6
:1004C00009021204140115011703180119011A0178
:1004D0001E062201412D0000006165616269000174
:1004E000230000000537452D4D00060D074D09027C
:1004F0001204140115011703180119011A011E062F
:020500002201D6
:0400000508000000EF
:00000001FF
