:020000040800F2
:1000000000800020050300089903000899030008F8
:100010009903000899030008990300089903000850
:100020009903000899030008990300089903000840
:100030009903000899030008990300089903000830
:100040009903000899030008990300089903000820
:100050009903000899030008990300089903000810
:100060009903000899030008990300089903000800
:1000700099030008990300089903000899030008F0
:1000800099030008990300089903000899030008E0
:1000900099030008990300089903000899030008D0
:1000A00099030008990300089903000899030008C0
:1000B00099030008990300089903000899030008B0
:1000C00099030008990300089903000899030008A0
:1000D0009903000899030008A90A00089903000879
:1000E0009903000899030008990300089903000880
:1000F0009903000899030008990300089903000870
:10010000990300089903000899030008990300085F
:10011000990300089903000899030008990300084F
:10012000990300089903000899030008990300083F
:10013000990300089903000899030008990300082F
:10014000990300089903000899030008990300081F
:10015000990300089903000899030008990300080F
:1001600099030008990300089903000899030008FF
:1001700099030008990300089903000899030008EF
:1001800099030008990300089903000899030008DF
:1001900099030008990300089903000899030008CF
:1001A00099030008990300089903000899030008BF
:1001B00099030008990300089903000899030008AF
:1001C000990300089903000899030008990300089F
:1001D000990300089903000880B400AF2B4B1B68FB
:1001E0002A4A23F080731360284B1B6803F00073C6
:1001F000002B14BF01230023DBB2002B00D0F3E758
:10020000234B1B68224A23F00F031360204B1B680B
:100210001F4A43F0070313601D4B1B681C4A43F43D
:1002200080731360194BDB68184A43F00203D360F4
:10023000164BDB68154A23F4FE43D360134BDB688F
:10024000124A43F4AA43D360104BDB680F4A23F0F1
:10025000F003D3600D4BDB680C4A43F03003D360EE
:100260000A4BDB68094A43F08073D360074B1B6875
:10027000064A43F080731360044B9B68034A43F0C3
:100280000303936000BFBD4680BC7047001002406E
:100290000020024080B582B000AF164A164BD31A38
:1002A0009B103B6000237B607A683B689A4208D2CF
:1002B000114A7B6852F8233098477B6801337B6092
:1002C000F2E70E4A0E4BD31A9B103B6000237B6073
:1002D0007A683B689A4208D2094A7B6852F8233010
:1002E00098477B6801337B60F2E700BF0837BD4663
:1002F00080BD00BF001200080012000804120008B0
:100300000012000880B584B000AFFFF765FF1D4BF9
:10031000FB601D4BBB601D4A1B4BD31A7B607B6887
:100320005A1E7A60002B14BF01230023DBB2002B7E
:1003300009D0FB685A1CFA601978BB685A1CBA606D
:100340000A461A70EBE7124BBB60124A104BD31AE5
:100350007B607B685A1E7A60002B14BF0123002348
:10036000DBB2002B05D0BB685A1CBA6000221A70A1
:10037000EFE7FFF78FFF00F095F900BF1037BD469C
:1003800080BD00BFA0130008000000200000002076
:10039000000000203001002080B400AFFEE700BF65
:1003A00080B483B000AF78607B685A1E7A60002BFF
:1003B00014BF01230023DBB2002B00D0F4E700BF01
:1003C0000C37BD4680BC704780B400AF0A4BDB6C75
:1003D000094A43F02003D364084B1B68074A23F003
:1003E00002031360054B1B68044A43F001031360CA
:1003F00000BFBD4680BC704700100240001400489A
:1004000080B400AF114BDB6C104A43F48033D364EB
:100410000E4BDB6C0D4A43F00103D3640C4B1B689D
:100420000B4A43F001131360094B00229A60084BFA
:1004300000225A614FF090431B684FF0904243F402
:100440007063136000BFBD4680BC7047001002405F
:100450000008005080B400AF6E4B9B6D6D4A43F0B6
:10046000010393656B4B9B6B6A4A23F00103936313
:100470004FF0804300221A604FF0804300221A613F
:100480004FF0804300229A624FF0804340F2A46212
:10049000DA624FF0804320225A604FF080435B695C
:1004A0004FF0804243F0010353614FF080431B68DB
:1004B0004FF0804243F0100313604FF080431B68FD
:1004C0004FF0804243F001031360524BD3F8883061
:1004D000504A43F00053C2F888304E4BDB6C4D4A13
:1004E00043F00103D3644FF090431B684FF09042F8
:1004F00043F0030313604FF090431B684FF09042AA
:1005000043F00C031360434BDB6C424A43F400534B
:10051000D364404BDB6A3F4A23F40053D3624FF06D
:10052000A04300229A603C4B00229A603B4B9B68A0
:100530003A4A43F40C1343F0060393604FF0A04390
:100540004FF080529A60344B4FF080529A604FF0D7
:10055000A0439B684FF0A04243F0004393604FF0EC
:10056000A0439B68DB0FDBB2002B00D0F7E72A4BE0
:100570009B68294A43F000439360274B9B68DB0F3D
:10058000DBB2002B00D0F8E74FF0A043244ADA603A
:10059000214B234ADA604FF0A04300221A634FF048
:1005A000A0431B6B4FF0A04243F0400313631A4B70
:1005B00000221A63184B1B6B174A43F08003136326
:1005C0004FF0A04308225A60164B1B68154A43F4AB
:1005D000802313604FF0A0439B684FF0A04243F08C
:1005E000010393600C4B9B680B4A43F0010393603B
:1005F0004FF0A0439B684FF0A04243F00403936088
:10060000054B9B68044A43F00403936000BFBD465A
:1006100080BC7047001002400001005000030050F1
:100620006015008000E100E080B400AF184B5B690A
:10063000174A43F0010353614FF0A0431B6803F0D6
:100640000803002B14BF01230023DBB2002B15D0BD
:10065000104BDB689BB2104A13600E4BDB681B0C1F
:100660000E4A13600E4A0C4B1B6893600C4A0B4BEE
:100670001B6853614FF0A04308221A60044B5B696A
:10068000034A23F00103536100BFBD4680BC70479D
:10069000001400480003005024010020280100201D
:1006A0000008005080B586B000AF00237B610023B6
:1006B0003B740A4800F04AFA094800F03DF807493F
:1006C000084800F067FB074800F08AFC054800F086
:1006D00046FC6420FFF764FEF8E700BF1801002025
:1006E000000000201C01002080B582B000AF7860BF
:1006F00039607B68012B0DD13B684FF6FF72934246
:1007000008D1064800F02EFE054800F035FE0548E9
:1007100000F03CFE00BF0837BD4680BD0000002051
:10072000180100201C01002080B500AF4FF6FF71BA
:100730000120FFF7D9FF80BD80B485B000AF78609D
:100740004FF41653FB603A4A7B68136072B67B68BD
:100750000022C3F8942000237A68C2F890307A68A7
:10076000C2F88C307B6800229A6000237A6853605C
:100770007A6813602F4BDB6C2E4A43F00103D3647D
:100780002C4B9B6D2B4A43F4003393654FF0904301
:100790001B684FF0904243F0A00313604FF090436A
:1007A0001B684FF0904223F0500313604FF09043CA
:1007B0001B6A4FF0904223F47F4313624FF0904343
:1007C0001B6A4FF0904243F4EE4313621A4BBB6036
:1007D000BA68FB6892FBF3F3BB60164B9B6B154A40
:1007E00023F400339363154B00221A60134B00224D
:1007F0005A60124B00229A60104ABB68D3600F4BBC
:100800004FF0FF321A620D4B6C221A600B4B1B68C3
:100810000A4A43F001031360094B5B68084A43F03E
:100820004003536062B600BF1437BD4680BC7047BA
:100830002C0100200010024080FE210A00440040EC
:1008400000E100E080B582B000AF78600B46FB703D
:100850000F4B1B6803F00803002B0CBF0123002380
:10086000DBB2002B09D00A4B1B68094A43F008038E
:100870001360074AFB78936205E07B68FA781946B3
:10088000786800F0B3F800BF0837BD4680BD00BFF0
:100890000044004080B582B000AF78607B688C3344
:1008A0001946786800F0D6F8034618460837BD4662
:1008B00080BD80B586B000AF786039600A237B6167
:1008C0000023FB743B68002B05DA2D233B723B6849
:1008D0005B423B6001E02B233B727B69002B20DDF8
:1008E0003A68154B83FB02139910D317C91A0B46AC
:1008F0009B000B445B00D11ACBB23033D9B207F165
:1009000008027B6913440A461A703B680A4A82FB54
:1009100003129210DB17D31A3B607B69013B7B61AA
:10092000DBE707F108031946786800F048F800BFD4
:100930001837BD4680BD00BF6766666680B586B065
:1009400000AF7860396007237B6100233B747B69CB
:10095000002B1BDB3B68DBB203F00F03FB74FB7C5B
:10096000092B03D9FB7C3733FB7402E0FB7C30336B
:10097000FB7407F108027B691344FA7C1A703B6828
:100980001B093B607B69013B7B61E0E707F10803E2
:100990001946786800F013F800BF1837BD4680BDCF
:1009A00080B582B000AF78600B46FB70FB781946CB
:1009B0007868FFF747FF00BF0837BD4680BD80B5A8
:1009C00082B000AF786039603B681B78002B09D09B
:1009D0003B681B7819467868FFF734FF3B680133A2
:1009E0003B60F1E700BF0837BD4680BD80B485B0ED
:1009F00000AFF860B9601346FB71BB689B68802B41
:100A00000CBF01230023DBB2002B00D0F5E7BB684D
:100A10009B687F2B94BF01230023DBB2002B14D0F3
:100A200072B6BB689B685A1CBB689A60F979BB6850
:100A30001B68BA6813440A461A73BB681B68013303
:100A400003F07F02BB681A6062B600BF1437BD4670
:100A500080BC704780B485B000AF786039600023F7
:100A6000FB733B689B68002B14BF01230023DBB2A0
:100A7000002B13D072B63B689B685A1E3B689A6085
:100A80003B685B683A6813441B7BFB733B685B689D
:100A9000013303F07F023B685A6062B6FB7B184665
:100AA0001437BD4680BC704780B500AF254BDB696D
:100AB00003F08003002B14BF01230023DBB2002BC3
:100AC00022D0204B1B6A1F4A43F0600313621E4B67
:100AD0001B689B68002B14BF01230023DBB2002B93
:100AE0000CD0194B1B68184A126811461846FFF7BC
:100AF000B1FF03461A46134B9A6205E0114B1B687F
:100B0000104A23F0080313600E4BDB6903F0200347
:100B1000002B14BF01230023DBB2002B10D00A4BA3
:100B20001868094B1B688C33064A526AD2B21946C0
:100B3000FFF75CFF034B1B6A024A43F0200313627A
:100B400000BF80BD004400402C01002080B584B06F
:100B500000AF7860314B1B6E304A43F4805313660C
:100B60002E4B1B6C2D4A43F4805313642B4B1B6C90
:100B70002A4A23F480531364284BDB6C274A43F042
:100B80000103D3644FF090431B684FF0904223F46D
:100B9000AA4313604FF090431B684FF0904243F418
:100BA0002A4313604FF090431B6A4FF090429BB270
:100BB00013624FF090431B6A4FF0904243F0AA43F8
:100BC00043F4AA0313624FF090439B684FF09042A6
:100BD00043F47F439360124B9B68BB60104B3722FA
:100BE0001A600F4B41F204725A60786800F05AF8AC
:100BF0000023FB60FB681F2B09DC0021786800F0F4
:100C000011F80346BB60FB680133FB60F2E77868CC
:100C100000F05AF800BF1037BD4680BD00100240FA
:100C20000030014080B483B000AF78600B46FB70A9
:100C30000A4AFB7813700A4B9B6803F08003002B71
:100C400014BF01230023DBB2002B00D0F3E7034BDA
:100C50001B7818460C37BD4680BC70470C300140ED
:100C60000030014080B483B000AF78600B467B80D9
:100C70000B4A7B88D3600A4B9B6803F08003002BF0
:100C800014BF01230023DBB2002B00D0F3E7044B99
:100C9000DB689BB218460C37BD4680BC704700BF6E
:100CA0000030014080B483B000AF7860054B1B6812
:100CB000044A43F04003136000BF0C37BD4680BCBC
:100CC000704700BF0030014080B485B000AF78604D
:100CD0004FF47A73FB602E4B9B6803F4C053002BD8
:100CE00014BF01230023DBB2002B00D0F3E7284B15
:100CF0009B6803F00103002B06D0FB685A1EFA60C4
:100D0000002B01D0012300E00023002B00D0EEE7F0
:100D10004FF47A73FB601E4B9B6803F00203002BB9
:100D200006D1FB685A1EFA60002B01D0012300E0B7
:100D30000023002B00D0EEE74FF47A73FB60144BD6
:100D40009B6803F08003002B06D0FB685A1EFA60F4
:100D5000002B01D0012300E00023002B00D0EEE7A0
:100D60000B4B1B680A4A23F0400313604FF090437B
:100D70001B6903F01003002B0CBF01230023DBB21F
:100D8000002B00D0F2E700BF1437BD4680BC70478F
:100D90000030014080B483B000AF786039607B6878
:100DA0003A681A6000BF0C37BD4680BC704790B5EA
:100DB00087B000AFF860B9607A603B60FB681B6881
:100DC0001846FFF76FFFFB681B6803211846FFF703
:100DD00029FFFB681A68BB681B0CDBB2194610467A
:100DE000FFF720FFFB681A68BB681B0ADBB21946D5
:100DF0001046FFF717FFFB681B68BA68D2B21146AE
:100E00001846FFF70FFF00237B617A693B689A421F
:100E10000DD2FB6818687A687B69D418FF21FFF748
:100E200001FF034623707B6901337B61EDE7FB68BB
:100E30001B681846FFF748FF00BF1C37BD4690BD32
:100E400080B586B000AFF860B9607A603B60F86842
:100E500000F0DEF8FB681B681846FFF723FFFB680D
:100E60001B6802211846FFF7DDFEFB681A68BB68A5
:100E70001B0CDBB219461046FFF7D4FEFB681A685C
:100E8000BB681B0ADBB219461046FFF7CBFEFB68B6
:100E90001B68BA68D2B211461846FFF7C3FE00239A
:100EA0007B617A693B689A420CD2FB6818687A6861
:100EB0007B6913441B781946FFF7B4FE7B69013345
:100EC0007B61EEE7FB681B681846FFF7FDFE00BF7D
:100ED0001837BD4680BD80B582B000AF78603960FC
:100EE000786800F095F87B681B681846FFF7DAFE13
:100EF0007B681B68D8211846FFF794FE7B681A6848
:100F00003B681B0CDBB219461046FFF78BFE7B6873
:100F10001A683B681B0ADBB219461046FFF782FECF
:100F20007B681B683A68D2B211461846FFF77AFE12
:100F30007B681B681846FFF7C7FE786800F0D8F892
:100F4000034603F00103002B14BF01230023DBB28F
:100F5000002B00D0F1E700BF0837BD4680BD80B54B
:100F600082B000AF7860786800F052F87B681B6848
:100F70001846FFF797FE7B681B68C7211846FFF7E6
:100F800051FE7B681B681846FFF79EFE786800F0EC
:100F9000AFF8034603F00103002B14BF0123002325
:100FA000DBB2002B00D0F1E700BF0837BD4680BDA3
:100FB00080B582B000AF78607B681B681846FFF789
:100FC00071FE7B681B68B9211846FFF72BFE7B6812
:100FD0001B681846FFF778FE00BF0837BD4680BD86
:100FE00080B582B000AF78607B681B681846FFF759
:100FF00059FE7B681B68AB211846FFF713FE7B6820
:101000001B681846FFF760FE00BF0837BD4680BD6D
:1010100080B582B000AF78607B681B681846FFF728
:1010200041FE7B681B6806211846FFF7FBFD7B68C5
:101030001B681846FFF748FE00BF0837BD4680BD55
:1010400080B582B000AF78607B681B681846FFF7F8
:1010500029FE7B681B6804211846FFF7E3FD7B68C7
:101060001B681846FFF730FE00BF0837BD4680BD3D
:1010700080B586B000AF786000237B617B681B6819
:101080001846FFF70FFE7B681B689F211846FFF785
:10109000C9FD7B681B68FF211846FFF7C3FD0346A7
:1010A0009BB2BB817B681B68FF211846FFF7BAFD26
:1010B00003469BB2FB817B681B68FF211846FFF744
:1010C000B1FD03469BB23B82BB897B617B691B02FE
:1010D0007B61FB891A467B6913447B617B681B68D3
:1010E0001846FFF7F1FD7B6918461837BD4680BDED
:1010F00080B584B000AF78607B681B681846FFF746
:10110000D1FD7B681B6805211846FFF78BFD7B68C6
:101110001B68FF211846FFF785FD0346FB737B68BC
:101120001B681846FFF7D0FDFB7B18461037BD46FD
:1011300080BD80B584B000AF78607B681B681846BE
:10114000FFF7B0FD7B681B6835211846FFF76AFD85
:101150007B681B68FF211846FFF764FD0346FB739D
:101160007B681B681846FFF7AFFDFB7B18461037FE
:10117000BD4680BD80B584B000AF78607B681B68D9
:101180001846FFF78FFD7B681B6815211846FFF78F
:1011900049FD7B681B68FF211846FFF743FD0346A6
:1011A000FB737B681B681846FFF78EFDFB7B1846B8
:1011B0001037BD4680BD80B582B000AF78600B4669
:1011C000FB707868FFF724FF7B681B681846FFF701
:1011D00069FD7B681B6801211846FFF723FD7B68CA
:1011E0001B68FA7811461846FFF71CFD7B681B68E0
:1011F0001846FFF769FD00BF0837BD4680BD0000F7
:10120000290700084743433A2028474E5520546F8A
:101210006F6C7320666F722041726D20456D626540
:10122000646465642050726F636573736F727320BA
:10123000392D323031392D71342D6D616A6F72293B
:1012400020392E322E3120323031393130323520B2
:101250002872656C6561736529205B41524D2F6171
:10126000726D2D392D6272616E63682072657669C8
:1012700073696F6E203237373539395D00412D0083
:1012800000006165616269000123000000053745C7
:101290002D4D00060D074D0902120414011501170A
:1012A00003180119011A011E062201412D00000038
:1012B00061656162690001230000000537452D4D1D
:1012C00000060D074D090212041401150117031839
:1012D0000119011A011E062201412D00000061655D
:1012E0006162690001230000000537452D4D0006AD
:1012F0000D074D09021204140115011703180119F5
:10130000011A011E062201412D0000006165616283
:10131000690001230000000537452D4D00060D072B
:101320004D09021204140115011703180119011ABD
:10133000011E062201412D00000061656162690005
:1013400001230000000537452D4D00060D074D090E
:10135000021204140115011703180119011A011EC4
:0313600006220161
:1013640080B483B000AF78607B6818460C37BD4604
:0413740080BC704782
:1013780080B483B000AF78607B6818460C37BD46F0
:0413880080BC70476E
:10138C0080B483B000AF78607B6818460C37BD46DC
:04139C0080BC70475A
:0400000508000000EF
:00000001FF
