:020000040800F2
:1000000000800020050300089903000899030008F8
:100010009903000899030008990300089903000850
:100020009903000899030008990300089903000840
:100030009903000899030008990300089903000830
:100040009903000899030008990300089903000820
:100050009903000899030008990300089903000810
:100060009903000899030008990300089903000800
:1000700099030008990300089903000899030008F0
:1000800099030008990300089D07000899030008D8
:1000900099030008990300089903000899030008D0
:1000A00099030008990300089903000899030008C0
:1000B00099030008990300089903000899030008B0
:1000C00099030008990300089903000899030008A0
:1000D0009903000899030008990300089903000890
:1000E0009903000899030008990300089903000880
:1000F0009903000899030008990300089903000870
:10010000990300089903000899030008990300085F
:10011000990300089903000899030008990300084F
:10012000990300089903000899030008990300083F
:10013000990300089903000899030008990300082F
:10014000990300089903000899030008990300081F
:10015000990300089903000899030008990300080F
:1001600099030008990300089903000899030008FF
:1001700099030008990300089903000899030008EF
:1001800099030008990300089903000899030008DF
:1001900099030008990300089903000899030008CF
:1001A00099030008990300089903000899030008BF
:1001B00099030008990300089903000899030008AF
:1001C000990300089903000899030008990300089F
:1001D000990300089903000880B400AF2B4B1B68FB
:1001E0002A4A23F080731360284B1B6803F00073C6
:1001F000002B14BF01230023DBB2002B00D0F3E758
:10020000234B1B68224A63F00F031360204B1B68CB
:100210001F4A43F0070313601D4B1B681C4A43F43D
:1002200080731360194BDB68184A43F00203D360F4
:10023000164BDB68154A23F4FE43D360134BDB688F
:10024000124A43F4AA43D360104BDB680F4A23F0F1
:10025000F003D3600D4BDB680C4A43F03003D360EE
:100260000A4BDB68094A43F08073D360074B1B6875
:10027000064A43F080731360044B9B68034A43F0C3
:100280000303936000BFBD4680BC7047001002406E
:100290000020024080B582B000AF164A164BD31A38
:1002A0009B103B6000237B607A683B689A4208D2CF
:1002B000114A7B6852F8233098477B6801337B6092
:1002C000F2E70E4A0E4BD31A9B103B6000237B6073
:1002D0007A683B689A4208D2094A7B6852F8233010
:1002E00098477B6801337B60F2E700BF0837BD4663
:1002F00080BD00BF7C0800087C0800087C0800085E
:100300007C08000880B584B000AFFFF765FF1D4B87
:10031000FB601D4BBB601D4A1B4BD31A7B607B6887
:100320005A1E7A60002B14BF01230023DBB2002B7E
:1003300009D0FB685A1CFA601978BB685A1CBA606D
:100340000A461A70EBE7124BBB60124A104BD31AE5
:100350007B607B685A1E7A60002B14BF0123002348
:10036000DBB2002B05D0BB685A1CBA6000221A70A1
:10037000EFE7FFF78FFF00F073FA00BF1037BD46BD
:1003800080BD00BF4E0900080000002000000020D2
:10039000000000200000002080B400AFFEE700BF96
:1003A00080B483B000AF78607B685A1E7A60002BFF
:1003B00014BF01230023DBB2002B00D0F4E700BF01
:1003C0000C37BD4680BC704780B400AF0A4BDB6C75
:1003D000094A43F02003D364084B1B68074A23F003
:1003E00002031360054B1B68044A43F001031360CA
:1003F00000BFBD4680BC704700100240001400489A
:1004000080B400AF114BDB6C104A43F48033D364EB
:100410000E4BDB6C0D4A43F00103D3640C4B1B689D
:100420000B4A43F001131360094B00229A60084BFA
:1004300000225A614FF090431B684FF0904243F402
:100440007063136000BFBD4680BC7047001002405F
:100450000008005080B400AF564BD3F88830554A9E
:1004600043F00053C2F88830524BDB6C514A43F0E2
:100470000103D3644FF090431B684FF0904243F068
:10048000030313604FF090431B684FF0904243F01A
:100490000C031360474BDB6C464A43F40053D364B0
:1004A000444BDB6A434A23F40053D3624FF0A0432A
:1004B00000229A60404B4FF480029A604FF0A043B4
:1004C0004FF080529A604FF0A0439B684FF0A042DB
:1004D00043F0004393604FF0A0439B68DB0FDBB217
:1004E000002B00D0F7E7334B9B6D324A43F00103FA
:1004F0009365304B9B6B2F4A23F0010393634FF0BE
:10050000804300221A604FF0804300221A614FF0AE
:10051000804300229A624FF0804340F2A462DA6284
:100520004FF0804320225A604FF080435B694FF0C8
:10053000804243F0010353614FF080431B684FF04A
:10054000804243F0100313604FF080431B684FF06C
:10055000804243F0010313604FF0A043174ADA6072
:100560004FF0A04301221A634FF0A0431B6B4FF0E2
:10057000A04243F4015313634FF0A04308225A6092
:100580000F4B1B680E4A43F4802313604FF0A043C7
:100590009B684FF0A04243F0010393604FF0A043EB
:1005A0009B684FF0A04243F00403936000BFBD4638
:1005B00080BC7047001002400002005060150080AF
:1005C00000E100E080B400AF6F4BD3F888306E4A92
:1005D00043F00053C2F888306B4BDB6C6A4A43F03F
:1005E0000103D3644FF090431B684FF0904243F0F7
:1005F000030313604FF090431B684FF0904243F0A9
:100600000C031360604BDB6C5F4A43F40053D3640C
:100610005D4BDB6A5C4A23F40053D3624FF0A04386
:1006200000229A60594B00229A60594B4FF4800285
:100630009A604FF0A0434FF080529A60534B4FF0B6
:1006400080529A604FF0A0439B684FF0A04243F065
:10065000004393604FF0A0439B68DB0FDBB2002B9D
:1006600000D0F7E7494B9B68484A43F0004393604A
:10067000464B9B68DB0FDBB2002B00D0F8E7424B08
:100680009B6D414A43F0010393653F4B9B6B3E4A90
:1006900023F0010393634FF0804300221A604FF070
:1006A000804300221A614FF0804300229A624FF08B
:1006B000804340F2A462DA624FF0804320225A6005
:1006C0004FF080435B694FF0804243F00103536178
:1006D0004FF080431B684FF0804243F010031360DB
:1006E0004FF080431B684FF0804243F001031360DA
:1006F0004FF0A043274ADA604FF0A04300221A636C
:100700004FF0A0431B6B4FF0A04243F04003136334
:100710004FF0A04308225A601C4B1E4ADA601B4B64
:1007200000221A63194B1B6B184A43F080031363B2
:10073000174B9B68164A43F001039360164B1B68E6
:10074000154A43F4802313604FF0A0439B684FF099
:10075000A04243F0010393600C4B9B680B4A43F0AB
:10076000010393604FF0A0439B684FF0A04243F019
:1007700004039360054B9B68044A43F004039360B1
:1007800000BFBD4680BC7047001002400001005011
:10079000000200506015008000E100E080B483B0EA
:1007A00000AF104B5B690F4A43F0010353610E4BDE
:1007B000DB687B604FF0A0430C4A1B6C93600C4BD2
:1007C0000A4A1B6C53614FF0A0430C221A60054B80
:1007D0005B69044A23F00103536100BF0C37BD4637
:1007E00080BC704700140048000200500008005010
:1007F0000001005080B483B000AF4FF0A0431B68ED
:1008000003F00803002B14BF01230023DBB2002BED
:1008100009D0114B5B69104A43F0010353614FF05B
:10082000A04308221A604FF0A0431B6CFB800B4AC8
:10083000FB889360094AFB8853614FF0A043042270
:100840001A60054B5B69044A23F00103536100BF42
:100850000C37BD4680BC70470014004800080050AB
:1008600080B582B000AF0023FB80FFF7ADFDFFF73E
:10087000C7FDFFF7A7FE62B6FEE700BF4743433A56
:100880002028474E5520546F6F6C7320666F72207E
:1008900041726D20456D6265646465642050726FBD
:1008A000636573736F727320382D323031392D7157
:1008B000332D7570646174652920382E332E3120F4
:1008C0003230313930373033202872656C656173CE
:1008D0006529205B6763632D382D6272616E6368E2
:1008E000207265766973696F6E2032373330323724
:1008F0005D00412D00000061656162690001230017
:1009000000000537452D4D00060D074D0902120464
:10091000140115011703180119011A011E062201FD
:10092000412D000000616561626900012300000043
:100930000537452D4D00060D074D0902120414011F
:0E09400015011703180119011A011E062201E4
:0400000508000000EF
:00000001FF
