:020000040800F2
:10000000008000202D030008C5030008C503000878
:10001000C5030008C5030008C5030008C5030008A0
:10002000C5030008C5030008C5030008C503000890
:10003000C5030008C5030008C5030008C503000880
:10004000C5030008C5030008C5030008C503000870
:10005000C5030008C5030008C5030008C503000860
:10006000C5030008C5030008C5030008C503000850
:10007000C5030008C5030008C5030008C503000840
:10008000C5030008C503000851050008C5030008A2
:10009000C5030008C5030008C5030008C503000820
:1000A000C5030008C5030008C5030008C503000810
:1000B000C5030008C5030008C5030008C503000800
:1000C000C5030008C5030008C5030008C5030008F0
:1000D000C5030008C5030008C5030008C5030008E0
:1000E000C5030008C5030008C5030008C5030008D0
:1000F000C5030008C5030008C5030008C5030008C0
:10010000C5030008C5030008C5030008C5030008AF
:10011000C5030008C5030008C5030008C50300089F
:10012000C5030008C5030008C5030008C50300088F
:10013000C5030008C5030008C5030008C50300087F
:10014000C5030008C5030008C5030008C50300086F
:10015000C5030008C5030008C5030008C50300085F
:10016000C5030008C5030008C5030008C50300084F
:10017000C5030008C5030008C5030008C50300083F
:10018000C5030008C5030008C5030008C50300082F
:10019000C5030008C5030008C5030008C50300081F
:1001A000C5030008C5030008C5030008C50300080F
:1001B000C5030008C5030008C5030008C5030008FF
:1001C000C5030008C5030008C5030008C5030008EF
:1001D000C5030008C503000880B400AF2C4B1B68A2
:1001E0002B4A23F080731360294B1B6803F00073C4
:1001F000002B14BF01230023DBB2002B00D0F3E758
:10020000244B1B68234A23F00F031360214B1B6808
:10021000204A43F0070313601E4B1B681D4A43F43A
:10022000807313601A4BDB68194A43F00203D360F2
:10023000174BDB68164A23F4FE43D360144BDB688C
:10024000134A43F4AA43D360114BDB68104A23F0EE
:10025000F003D3600E4BDB680D4A43F03003D360EC
:100260000B4BDB680A4A43F08073D360084B1B6872
:10027000074A43F080731360054B9B68044A43F0C0
:100280000303936000BFBD465DF8047B704700BF69
:10029000001002400020024080B582B000AF164A34
:1002A000164BD31A9B103B6000237B607A683B6837
:1002B0009A4208D2114A7B6852F8233098477B68EB
:1002C00001337B60F2E70E4A0E4BD31A9B103B6062
:1002D00000237B607A683B689A4208D2094A7B68AF
:1002E00052F8233098477B6801337B60F2E700BF08
:1002F0000837BD4680BD00BF480600084806000814
:10030000480600084806000880B400AF064B4FF4CA
:1003100070021A60BFF34F8FBFF36F8F00BFBD46EF
:100320005DF8047B704700BF88ED00E080B584B0C5
:1003300000AFFFF751FFFFF7E7FF1D4BFB601D4BC1
:10034000BB601D4A1B4BD31A7B607B685A1E7A60C8
:10035000002B14BF01230023DBB2002B09D0FB6864
:100360005A1CFA601978BB685A1CBA600A461A709F
:10037000EBE7124BBB60124A104BD31A7B607B68D1
:100380005A1E7A60002B14BF01230023DBB2002B1E
:1003900005D0BB685A1CBA6000221A70EFE7FFF75D
:1003A0007BFF00F047F900BF1037BD4680BD00BF9E
:1003B0002907000800000020DC010020DC010020EB
:1003C000BC03002080B400AFFEE700BF0138B0F1ED
:1003D000FF3FFBD17047074AD36C43F02003D3643F
:1003E000054B1A6822F002021A601A6842F00102F4
:1003F0001A60704700100240001400480B4BDA6C82
:1004000042F48032DA64DA6C42F00102DA64084BBA
:100410001A6842F001121A6000229A605A614FF085
:100420009042136843F470631360704700100240F9
:1004300000080050414B9A6D42F001029A659A6B98
:1004400022F001029A634FF0804200211160116195
:10045000916240F6D550D06220205060506940F043
:1004600001005061106840F010001060106840F00A
:1004700001001060D3F8882042F00052C3F88820B1
:10048000DA6C42F00102DA644FF09042106840F0FA
:1004900003001060106840F00C001060DA6C42F449
:1004A0000052DA64DA6A22F40052DA624FF0A042B3
:1004B00091602348816023498B6843F40C1343F017
:1004C00006038B604FF0805393608360936843F022
:1004D000004393609368002BFCDB194A936843F058
:1004E000004393609368002BFCDB4FF0A043164958
:1004F000D960134AD16000201863196B41F04001A4
:1005000019631063116B41F0800111630821596078
:100510000E48016841F480210160996841F00101B1
:100520009960916841F001019160996841F004017E
:100530009960936843F00403936070470010024091
:1005400000010050000300506015008000E100E051
:10055000314A536943F0010353614FF0A0431B68D4
:1005600013F0080F46D010B42C4BDA68DA682C4927
:100570000B6801EB8301120C07EE902AF8EE677A04
:10058000C1ED017A274A02F5EE749FED277A2448DF
:10059000F2EC017A00EB8301D1ED016A67EEA67AF5
:1005A00037EE277A0133772B28BF0023A242EFD101
:1005B000DFED1E7A27EE277AFCEEC77A1C4AC2EDE1
:1005C000027AC2ED057A4FF0A04308221A60144B5C
:1005D0001B680133762B09D8114A13600E4A536900
:1005E00023F0010353615DF8044B70470C4B00226C
:1005F0001A60F3E70A4B1B680133762B07D8084AC9
:100600001360054A536923F0010353617047044B9B
:1006100000221A60F5E700BF0014004800030050F4
:10062000DC010020000000200000000000008039F4
:100630000008005008B5FFF7CEFEFFF7DFFEFFF71A
:10064000F9FE62B6FEE700BF4743433A2028474E13
:100650005520546F6F6C7320666F722041726D204D
:10066000456D6265646465642050726F6365737381
:100670006F727320392D323031392D71342D6D6107
:100680006A6F722920392E322E31203230313931C1
:10069000303235202872656C6561736529205B41B5
:1006A000524D2F61726D2D392D6272616E6368201B
:1006B0007265766973696F6E203237373539395D07
:1006C000004133000000616561626900012900009A
:1006D000000537452D4D00060D074D09020A06128B
:1006E00004140115011703180119011A011B011C3B
:1006F000011E012201413300000061656162690051
:1007000001290000000537452D4D00060D074D0954
:10071000020A061204140115011703180119011A1F
:09072000011B011C011E01220154
:10072900D9DFF8C048953BC1AC5175C1217593C15A
:1007390042EFA6C1DC02B4C1F8D4B9C1B9CFB7C17F
:10074900AFABADC14D769BC1309581C1C48B41C161
:100759001B68E8C009FFEEBFFDC178403F551C4149
:100769006AA07841DA81A741A4BCCD410A17ED41BD
:1007790003EB0142B040084226FB0842C7BB0342D3
:1007890086BAF04170F0CD415FCB9F4139FD4E41B2
:1007990018E99A40A77781C0DD8056C11D10B7C1FD
:1007A900015900C2337322C20F3240C29FFA57C2A5
:1007B9001C4A68C23BC46FC29C406DC2F7D65FC277
:1007C90083E946C22D2D22C2AC5EE3C10C6357C139
:1007D900DC928440C2EAC041256138425D4E8B42B9
:1007E9006098BC427AFAEE42E7A710438C35294358
:1007F900BD8F4043AE2456438F6B6943AEE87943BE
:100809009C9883433E77884349708B432A708C4375
:1008190049708B433E7788439C988343AEE879437C
:100829008F6B6943AE245643BD8F40438C352943B2
:10083900E7A710437AFAEE426098BC425D4E8B42BC
:1008490025613842C2EAC041DC9284400C6357C139
:10085900AC5EE3C12D2D22C283E946C2F7D65FC241
:100869009C406DC23BC46FC21C4A68C29FFA57C202
:100879000F3240C2337322C2015900C21D10B7C1E1
:10088900DD8056C1A77781C018E99A4039FD4E41EC
:100899005FCB9F4170F0CD4186BAF041C7BB03429F
:1008A90026FB0842B040084203EB01420A17ED411A
:1008B900A4BCCD41DA81A7416AA078413F551C41CA
:1008C900FDC1784009FFEEBF1B68E8C0C48B41C178
:1008D900309581C14D769BC1AFABADC1B9CFB7C121
:1008E900F8D4B9C1DC02B4C142EFA6C1217593C1E4
:0C08F900AC5175C148953BC1D9DFF8C077
:0400000508000000EF
:00000001FF
